:03000000020942B0
:0C094200787FE4F6D8FD75814702098932
:1008830012011001000000083D4107210000000093
:10089300000109023B00020100A03209040000012B
:1008A30003010100092111010001223E0007058116
:1008B3000308000A090401000103010200092110D1
:1008C3000100012234000705820304000A0501091F
:1008D30006A101050719E029E71500250175019512
:1008E30008810295017508810195037501050819B1
:1008F3000129039102950575019101950675082655
:10090300FF000507190029918100C005010902A113
:10091300010901A100050919012903150025017524
:1009230001950381027505950181010501093009CE
:0F0933003109381581257F750895038106C0C0ED
:1007C00004250000000008100000000000000000E8
:100C0C00C2EAE4F5E275D18043D10443E24075E5D4
:100C1C000075E450E5EB54FE4404F5EB75D4127505
:100C2C00ED0075EC0053EAF375DC0275EF0075EE20
:100C3C000AE5EA54EF4440F5EA75D212E4F5E343D1
:0E0C4C00E22943D10175D8FF75E107D2EA22F3
:100D5A00780A7C007D017E007F0812044075D30862
:040D6A0053D2FC2242
:0300430002004672
:0D004600C0E0C0F0C083C082C0D075D008FB
:1000530075450020D903020341E5D9543F700302DB
:10006300032424E070030202CF14601924F16026F4
:10007300240E600302033F75D500E5D454FC44020B
:10008300F5D402033F75D300E5D254FC4402F5D204
:10009300751A0102033F85DB45E5456408600302E9
:1000A30002AE900006E0F51BA3E07007E51BD394B6
:1000B3007F4003751B7F754500900001E0F51C90A0
:1000C3000000E054606018E51C1424FD40030202A4
:1000D300B124FB24FD40030202B180000202AEE51D
:1000E3001CB40B0040030202AC9000F3F828287301
:1000F3000202940201E00202AC02021E0202AC02FE
:1001030001AE0201140202AC0201B70201CD0202E8
:10011300B1900003E024FE601914605024E16020D4
:10012300242170457529FF752A08752B837545129F
:10013300803A7529FF752A08752B9575453B802CE8
:10014300900004E0FF700E7529FF752A08752BD007
:1001530075453E8017EFB4010E7529FF752A0975A1
:100163002B0E754534800580007545FFE51BD3953F
:1001730045400385451BE51BC3940840047F088065
:1001830002AF1B8F457E0078007C007D01AB29AA5E
:100193002AA92B120440C3E51B9545F51BE545250C
:1001A3002BF52BE4352AF52A0202B1900002E0F583
:1001B3001B0202B1900000E518F0E51BC394015047
:1001C300030202B17545010202B1900002E0F51885
:1001D300E51870030202B1752C010202B190000010
:1001E300E0541FFF6402702A900004E014601B2493
:1001F30080600D147019E5D454BC4402F5D4801208
:10020300E5D254BC4402F5D2800853D273800375FF
:1002130045FFEF70030202B10202AE900000E0540A
:100223001FFD701B900003E0FE900002E0FBEB64F7
:10023300014E700990089C9320E573806E806CEDED
:100243006402704B900003E0FE900002E0FDED4E6F
:10025300703B900005E0FE900004E0FDEDFFEE70C2
:100263002AEF24FE60112481601714701EE5D45414
:10027300BF4403F5D48037E5D4547F440CF5D480D0
:100283002DE5D254BF4403F5D28023801E801C8009
:100293001A900000E4F0A3F0E51BC3940240057537
:1002A3004502800A851B45800580007545FFE545AD
:1002B300B4FF09751CFF75DCCF02033FE5456004FD
:1002C300F5DD800375DD0075DCC08070E51C24FB63
:1002D300603D147044E51BC3940840047F0880020A
:1002E300AF1B8F457E0078007C007D01AB29AA2AD5
:1002F300A92B120440C3E51B9545F51BE545252BAA
:10030300F52BE4352AF52A8545DD63DC40802DE5B0
:10031300E35480451BF5E3800375DD0075DC028043
:100323001B85DB45E51CB40910900000E0FFB40118
:1003330002C2B5EFB40302D2B563DC80C2D930D8B0
:100343001275DC0275D21075D41275E300C2DAC2DD
:10035300D9C2D830DA09C2DAE5DA30E205800375AA
:02036300D8FFC1
:0B036500D0D0D082D083D0F0D0E032A6
:100D6E0075A15575A1AAE5B954F84404F5B9E4F591
:020D7E00A122B0
:0E0D8000EF4E600905A1EF1F70F61E80F322F2
:100D4300AD07AC06ED4C600E7FE87E03120D80ED1F
:070D53001D70F11C80EE226F
:100CC300EF7009E58954F04DF589801FBF010EEDE2
:100CD300C454F0FFE589540F4FF589800EBF020815
:0E0CE300C2CDC2CCC2C880037FFF227F002298
:100C9100C3E49DFDE49CFCEF700AEDF58ACFECCF37
:100CA100EFF58C22BF0107EDF58BECF58D22BF022C
:100CB10010CFEDCFEDF5CC8FCACFECCFECF5CD8FCA
:010CC100CB67
:010CC200220F
:03000B00020D1FC4
:100D1F00C0E0C0F0C083C082C0D075D0087DD07C49
:100D2F0007E4FF120C91120A4ED0D0D082D083D09C
:040D3F00F0D0E032DE
:1007D000605000E3022D022E002300240025002695
:1007E0000027002A002E0031001C0018000C001207
:1007F0000013004C00330036000B000D000E000FFC
:10080000002D0028003400370005001100100238C8
:100810000052200002220038002C002CFF00005063
:100820000051004F60500092022D022E003F004008
:10083000004100420043002A002E0031001C001835
:10084000000C00120013004C00330036000B023481
:100850000233000F002D0028003400370005022F5E
:10086000023002380052200002220038002C0038EA
:10087000FF0000500051004F4100E200012D020135
:02088000400036
:100AAE00E4FD7F03120B097D017F03120B097D020A
:100ABE007F03120B097D037F03120B097D047F0355
:100ACE00120B09E4FD7F01120B627D017F01120BF7
:100ADE00627D027F01120B627D037F01120B627D2C
:100AEE00047F01120B627D057F01120B627D067F72
:0B0AFE0001120B627D077F01020B62FA
:0309CE00F547FFEB
:1009D100E58730E23CEF25E02492F582E43400F52E
:1009E10083E0FEF46005EE2540F540EF25E0249319
:1009F100F582E43400F583E0F541742E252DF8A647
:100A010041E52DC394085044E5419400403E052D35
:100A110022EF25E024E3F582E43400F583E0FEF4DF
:100A21006005EE2540F540EF25E024E4F582E4344D
:100A310000F583E0F541742E252DF8A641E52DC37F
:0D0A410094085008E54194004002052D2264
:030CF100F547FFC5
:100CF400EF25E024E3F582E43400F583E0B4FF1A41
:100D0400EF25E024E4F582E43400F583E0FE70038B
:0B0D1400438704EEB40103438708226C
:10063200E4F546F540752D027D08782EE4F608DDD6
:10064200FC5387FB5387F7E4FD743B2DF8E630E05B
:1006520008ED75F008A4120CF1743B2DF8E630E1B8
:1006620009ED75F008A404120CF1743B2DF8E63084
:10067200E20DED75F008A42402F547FF120CF474A4
:100682003B2DF8E630E30DED75F008A42403F547A1
:10069200FF120CF4743B2DF8E630E40DED75F00812
:1006A200A42404F547FF120CF4743B2DF8E630E560
:1006B2000DED75F008A42405F547FF120CF4743B08
:1006C2002DF8E630E60DED75F008A42406F547FF97
:1006D200120CF4743B2DF8E630E70DED75F008A42A
:1006E2002407F547FF120CF40DED640560030206C2
:1006F2004BE4FD743B2DF8E630E008ED75F008A4FC
:100702001209CE743B2DF8E630E109ED75F008A42C
:10071200041209CE743B2DF8E630E20DED75F008B7
:10072200A42402F547FF1209D1743B2DF8E630E309
:100732000DED75F008A42403F547FF1209D1743BAF
:100742002DF8E630E40DED75F008A42404F547FF1A
:100752001209D1743B2DF8E630E50DED75F008A4D1
:100762002405F547FF1209D1743B2DF8E630E60D5A
:10077200ED75F008A42406F547FF1209D1743B2D4C
:10078200F8E630E70DED75F008A42407F547FF12EF
:1007920009D10DED640560030206F585402E783619
:1007A2007C007D007B007A00793B7E007F0512068B
:0D07B2000EEF60097B007A00792E120D5ABF
:0107BF002217
:100A4E00E4FF43B01FEF7002C2B0BF0102C2B1BFDC
:100A5E000202C2B2BF0302C2B3BF0402C2B4743BED
:100A6E002FF8E4F6743B2FF8E6FEE590F44EF60F01
:100A7E00BF05CF78367C007D007B007A00793B7E07
:100A8E00007F0512060EEF601612063278367C00D5
:0F0A9E007D007B007A00793B7E007F05120440CB
:010AAD002226
:100BBB00E490004CF0E490004DF090004CE075F0A8
:100BCB0002A424E3F9740035F0FA7B01A3E0FF29BA
:100BDB00F9E43AFA90004CE025E0FEEF2EFF7D01A0
:100BEB0012000E9000E2EFF090004DE004F0E0C335
:100BFB00940240C690004CE004F0E0C3942840B54A
:010C0B0022C6
:100B0900EF14601C14602B14603C2403704A7401B8
:100B1900C8EDC8088002C333D8FCF452925293221C
:100B29007401C8EDC8088002C333D8FCFFF452929F
:100B390080237401C8EDC8088002C333D8FCFF4282
:100B490092EFF45293227401C8EDC8088002C333AE
:090B5900D8FCFF4292EF42932206
:100B6200EF14601C14602B14603C2403704A74015F
:100B7200C8EDC8088002C333D8FCF45296529722BB
:100B82007401C8EDC8088002C333D8FCFFF4529642
:100B920080237401C8EDC8088002C333D8FCFF4229
:100BA20096EFF45297227401C8EDC8088002C3334D
:090BB200D8FCFF4296EF429722A5
:100C5A00120D6E7F057E00120D43120AAE53C9EFC4
:100C6A007D01E4FF120CC37455FDFCE4FF120C91E4
:100C7A00D28CD2A9D2AF120C0CD2AFE4F5D3F5D5EF
:070C8A00F51A120BBB80FEFE
:06000E008B428A43894485
:100014007585C0EF25E0FFE4FEEEC39D501CEE2580
:10002400E02FF58475868EAB42AA43A9448E82756F
:0C0034008300E58E1204660E80DFAF062C
:01004000229D
:10094E00020C5AE493A3F8E493A34003F68001F259
:10095E0008DFF48029E493A3F85407240CC8C333AA
:10096E00C4540F4420C8834004F456800146F6DF79
:10097E00E4800B01020408102040809007C0E47E42
:10098E00019360BCA3FF543F30E509541FFEE4936E
:10099E00A360010ECF54C025E060A840B8E493A335
:1009AE00FAE493A3F8E493A3C8C582C8CAC583CA60
:1009BE00F0A3C8C582C8CAC583CADFE9DEE780BE18
:010882000075
:10037000E709F608DFFA8046E709F208DFFA803E6F
:1003800088828C83E709F0A3DFFA8032E309F6085C
:10039000DFFA8078E309F208DFFA807088828C83C4
:1003A000E309F0A3DFFA806489828A83E0A3F60878
:1003B000DFFA805889828A83E0A3F208DFFA804C52
:1003C00080D280FA80C680D4806980F28033801029
:1003D00080A680EA809A80A880DA80E280CA803392
:1003E00089828A83ECFAE493A3C8C582C8CCC5830A
:1003F000CCF0A3C8C582C8CCC583CCDFE9DEE780DA
:100400000D89828A83E493A3F608DFF9ECFAA9F058
:10041000EDFB2289828A83ECFAE0A3C8C582C8CCAE
:10042000C583CCF0A3C8C582C8CCC583CCDFEADEC7
:10043000E880DB89828A83E493A3F208DFF980CC29
:1004400088F0EF60010E4E60C388F0ED2402B40422
:100450000050B9F582EB2402B4040050AF232345C9
:0604600082239003C0732B
:10046600F8BB010DE58229F582E5833AF583E8F0CC
:10047600225006E92582C8F622BBFE05E92582C878
:02048600F22260
:10048800E3F5F009E208B5F06BDFF58067E3F5F016
:1004980009E608B5F05EDFF5805A87F009E608B589
:1004A800F052DFF6804E87F009E208B5F046DFF635
:1004B800804288828C8387F009E0A3B5F036DFF6A6
:1004C800803288828C8387F009E493A3B5F025DF16
:1004D800F5802188828C83E3F5F009E0A3B5F01458
:1004E800DFF5801088828C83E3F5F009E493A3B5E7
:1004F800F002DFF40205B7808780E9809080D4801D
:100508003E8015806E807E809D80B7808D80A38020
:10051800518074803C0205C389828A83ECFAE49393
:10052800F5F0A3C8C582C8CCC583CCE493A3C8C5DD
:1005380082C8CCC583CCB5F076DFE3DEE180708974
:10054800828A83E493F5F0A3E208B5F062DFF480D1
:100558005E89828A83E0F5F0A3E608B5F051DFF5FD
:10056800804D89828A83E0F5F0A3E208B5F040DF88
:10057800F5803C89828A83E493F5F0A3E608B5F018
:100588002EDFF4802A8002805789828A83ECFAE47D
:1005980093F5F0A3C8C582C8CCC583CCE0A3C8C571
:1005A80082C8CCC583CCB5F006DFE4DEE280007FEC
:1005B800FFB5F0020F2240027F012289828A83EC74
:1005C800FAE0F5F0A3C8C582C8CCC583CCE0A3C8BF
:1005D800C582C8CCC583CCB5F0D5DFE5DEE380CFD6
:1005E80089828A83ECFAE0F5F0A3C8C582C8CCC535
:1005F80083CCE493A3C8C582C8CCC583CCB5F0AF7F
:10060800DFE4DEE280A988F0EF60010E4E60ABED1A
:100618002402B404005098F582EB2402B40400507C
:0A0628008E23234582239004FF7304
:00000001FF
